:020000040000fa
:080000000001040000000000f3
:020000040000fa
:100008009401000094010000940100009401000094
:100018009401000094010000940100009401000084
:10002800940100009401000094010000cc05000038
:10003800940100009401000094010000e405000010
:10004800940100002c030000940100008c060000bd
:100058009401000094010000940100009401000044
:100068009401000094010000940100009401000034
:100078009401000094010000940100009401000024
:100088009401000094010000940100009401000014
:100098009401000094010000940100009401000004
:1000a80094010000940100009401000094010000f4
:1000b80094010000940100009401000094010000e4
:1000c80094010000940100009401000094010000d4
:1000d80094010000940100009401000094010000c4
:1000e80094010000940100009401000094010000b4
:0800f8009401000094010000d6
:020000040000fa
:100108009401000094010000940100009401000093
:100118009401000094010000940100009401000083
:10012800940100009401000094010000cc05000037
:10013800940100009401000094010000e40500000f
:10014800940100002c030000940100008c060000bc
:100158009401000094010000940100009401000043
:100168009401000094010000940100009401000033
:100178009401000094010000940100009401000023
:100188009401000094010000940100009401000013
:100198009401000094010000940100009401000003
:1001a80094010000940100009401000094010000f3
:1001b80094010000940100009401000094010000e3
:1001c80094010000940100009401000094010000d3
:1001d80094010000940100009401000094010000c3
:1001e80094010000940100009401000094010000b3
:0801f8009401000094010000d5
:020000040000fa
:10020000af8520000eff20000e01880000000000d6
:1002100000012000200288000c000700207120004f
:100220000100200011000700000020000000e00095
:10023000020032000000020000000000620702001d
:10024000000000000040da000000fe004440a90069
:10025000400320000000e000030032000000200006
:10026000a00188004440a800000006009101880019
:10027000800078000000eb0015003700e2804000ad
:1002800032a0b4009101ba00e280400032a0b40074
:100290009102ba00e280400032a0b4000002eb00fc
:1002a000472bde00f507b200602ce10004003a00a5
:1002b0000059eb008301e900fdff3e000400370018
:1002c0006128e100010032000082eb000400070019
:1002d0001101ba000200e000e8ff3a000000060049
:1002e0003159ba008301e9000c0032002159ba00eb
:1002f0008301e900080032000400e00003003a0036
:10030000e280400032a0b400f5ff370011d9ba00f6
:100310008301e900faff3a008100e800e180400033
:1003200032a0b400000006000040da000000fe0029
:10033000000278008042eb00b4cf1200fdff3a00cb
:0c0340000080ea000000420000000600ff
:020000040000fa
:10034c00535400004152000054530000544f00001d
:10035c0050570000726f00006e67000020630000b1
:10036c006f6d00006d6100006e6400000a000000fb
:10037c0043610000723a000020000000434100007d
:10038c00522000004f4e0000200a000000430000e5
:10039c0041520000204f000046460000200a000099
:0803ac00000a00000d00000032
:020000040000fa
:1003b4000000fa0004012000a41088000d42a900e6
:1003c4008d20a80075108000c4ff2f0004826200f5
:1003d400741088000de2a8000f42a8000080fa0003
:1003e400000006000000fa00248420001442780073
:1003f400044078000080fa00000006000000fa00c3
:100404000042eb000440780042e8b7000042eb00f1
:100414000440780040e8b7000042eb000440780054
:1004240041e8b7000080fa00000006000200fa006c
:100434002484200014427800e04f520002003a0065
:1004440000c2eb001400370004842000144278003a
:100454000483fb000580200085024300154f7800cb
:100464000442e8000440780040e8b7000484200017
:1004740014427800f443b2000440780040e8b70026
:1004840024842000144278000442e90004407800e7
:1004940042e8b7001e427800044078000080fa0069
:1004a400000006000400fa00881f78001007980076
:1004b4000042eb00044f7800080037009e427800a9
:1004c4000582fb009e02900004844200d7ff0700cf
:1004d40000427800044c78001e4fe8002484200079
:1004e40014427800e04f5200f4ff3a001e427800b4
:1004f400044078004f0478000080fa0000000600f1
:100504000200fa00004f780000000000751080001f
:100514000410200004826200e00f5200fbff32004e
:100524006410800066026200e60f520004003a0084
:100534009e4278000582fb00841088000300370087
:100544009e4278000582fb00841088000080fa0037
:10055400000006000200fa00000f780005003700d2
:100564001e0278001442780004407800e4ff07007b
:100574001e0fe8001e02780014427800e04f52007b
:10058400f7ff3a000080fa00000006000a00fa00b3
:100594004007980062004700010009000018eb00c2
:1005a4000058eb000042eb00044f78009e407800b6
:1005b4008182fb004e039000a4002000110009007a
:1005c4000483d80001027800044278000443b00098
:1005d40085024700a44298001e4fe800ce02900016
:1005e400a4002000110009008482d80000027800d1
:1005f400440798004e029000e00f5200ebff3a00cf
:100604000042eb00144798000d0037001e427800aa
:100614008482fb001e4290000482fb00048252008c
:100624000402e900040247002442900004407800d8
:10063400b3ff07001e4290000442e80014479800ec
:100644001e4290009e4f5200f0ff39000080fa00d5
:1006540000000600801f7800849fbe00869fbe00b5
:100664003400f80000002000a00188000000fa0017
:100674008520a90014842000144278008483fb00a0
:100684009510800085427800068020000683430090
:10069400054b78000442e8000440780041e8b700c4
:1006a4001484200014427800f443b200044078001b
:1006b40041e8b7002584200095427800f4c3b300d4
:1006c40084cf520005003e002484200014427800a8
:1006d4000442e8000440780042e8b7000080fa00d1
:1006e4003400f9004f03be004f02be004f007800f3
:1006f400004006004000fa003aff0700004278007c
:10070400e04f52001a003a001f000900001feb00de
:100714000e04b1000e00780062ff0700611a280081
:100724000e0078009101070000427800e14f52006a
:1007340003003a0014002000844288000c003700b3
:10074400b11a28000e0078008801070000427800e2
:10075400e14f520003003a000002eb00844288009b
:1007640003003700f41a28000400780079ff07001a
:100774000080fa00000006000000fa00e41b2800d4
:100784000400780073ff070084428000e10f5200e8
:1007940004003a00441c2800040078006dff0700a0
:1007a4000600370084428000e00f520003003a0044
:1007b400d41c28000400780066ff0700741d28007c
:1007c4000400780063ff07000080fa0000000600c0
:1007d4000800fa00889fbe008a9fbe0000027800cd
:1007e40025428000050f78003542800015079800e7
:1007f400454280002507980055428000350798003f
:100804003e04be002e05be00089abe000a92be0039
:10081400040078004f05be004f04be000080fa00bb
:10082400000006000400fa0000027800754280000f
:10083400050f780065428000150798003e1a78007d
:100844002e127800040078000080fa0000000600f0
:100854000400fa000e007800f2ff070084428000d2
:10086400e10f520015003a001e027800f80f520002
:1008740006003e0044002000944288000042eb0041
:100884000440780054e8b7000c0037001e029000c2
:10089400f80f520006003e004400200094428800f5
:1008a4000042eb000440780054e8b700030037002e
:1008b40014c0b3000440780054e8b7000080fa0084
:1008c400000006000a00fa000e82e8000400780026
:1008d400bfff07009e02900024032000848f520073
:1008e4000300360034002000040f7800170037009e
:1008f400be02900024032000848f520003003600bf
:100904000002eb00040f780010003700ce029000c4
:1009140024032000848f52000300360014002000ba
:10092400040f780009003700ae0290002403200071
:10093400848f52000300360024002000040f780046
:100944000200370044002000040f78001e027800e3
:10095400040078000080fa00000006000000fa009d
:100964000080fa00000006000000fa000080fa008f
:10097400000006000000fa000080fa0000000600f3
:100984000000fa008c60a90005e1a9008460a900b8
:100994000080fa00000006000200fa00000f780050
:1009a4008460a9001e027800044278006742620055
:1009b40067426200674262000482fb0067026200d1
:1009c4004c22dd00a6048000f5ff280085026300a8
:1009d40004827200a40488009e0278006882620087
:1009e4004322de0004427800614262000482fb007c
:1009f400610262004322dd006604800075ff2f005f
:100a04008502630004827200640488000080fa0096
:100a1400000006000400fa00000f78001107980097
:100a24000002eb00040888001e02900014088800ed
:100a34001e027800240888000080fa0000000600e6
:100a44000000fa0004088000040078000080fa0026
:100a5400000006000200fa00000f78001e02780071
:100a6400040888000080fa00000006000000fa0074
:100a74000080fa00000006000000fa000002eb000b
:100a8400340888000082eb00640888001021a90063
:100a9400840880000440a0000450a000840888005a
:100aa40084c0a9008cc0a80011e1a8000080fa004d
:100ab400000006000000fa000002eb005408880061
:100ac40084382100740888001221a90084e0a90058
:100ad4008ce0a80013e1a8000080fa0000000600e2
:100ae4000000fa000002eb00a40888000082eb007a
:100af400d40888001e21a900f40880000440a00046
:100b04000450a000f408880086a0a9008ea0a800c4
:100b14000080fa00000006000000fa00d3ff07007e
:100b2400d5ff0700e3ff0700edff07000080fa0090
:100b3400000006000200fa00000f78000002eb003b
:100b4400340888001e027800040242006408880009
:100b54000080fa00000006000200fa00000f78008e
:100b64000002eb00a40888001e0278000402420080
:100b7400d40888000080fa00000006000000fa0093
:100b8400b4428000c54280000400be000080fa0028
:100b940000000600841f78003400f80004002000e0
:100ba400a40188000000fa000002eb000408880099
:100bb4008460a9000080fa003400f9004f02780034
:100bc40000400600849fbe003400f80004002000aa
:100bd400a40188000000fa00b4428000c5428000ed
:100be40061024200e0824a00b4428800c5428800a3
:100bf4000002eb005408880084e0a9000080fa0099
:100c04003400f9004f02be00004006000000fa0064
:100c1400a1a2a900041580000480a1000490a100f1
:100c240004158800041580000450a0000460a0008e
:100c34000470a00004158800a022a80014158000e8
:100c440004d0a00004e0a00004f0a0001415880063
:100c5400a342a800141580000420a0000430a000c2
:100c64000440a1000450a10014158800a222a90088
:100c7400a202a9002515800004f02100048272005c
:100c840024158800a4e2a8002515800004fc2f0088
:100c940004826200f401b30024158800a782a9002d
:100ca400a682a900341580000400a1000410a1004c
:100cb4000420a1000430a1003415880034158000fc
:100cc4000480a1000490a10004a0a10004b0a1002c
:100cd400341588004515800004c02f00048262008a
:100ce4004415880035168000f43f20000482720009
:100cf400341688000002eb0054158800a042a800b6
:100d04008d60a8008560a900a1e2a8000080fa0017
:100d140000000600841f78003400f800040020005e
:100d2400a40188000000fa00041480002442880012
:100d34001414800034428800241480004442880043
:100d440034148000544288004414800074428800a3
:100d540054148000644288008560a9000080fa0071
:100d64003400f9004f027800004006000800fa0041
:100d740020079800310798002e02900004007800a4
:100d84006afd070000027800144798003e029000b4
:100d94000400780065fd07000002780024479800ed
:100da4009e4290002e42900084cf520002003200f6
:100db4000042eb00170037000042eb00044f7800bc
:100dc4000f0037009e4278000582fb00ae029000bf
:100dd40004824200944278001e4378000682fb009d
:100de4003e039000040243001442780084cf520072
:100df400020032000042eb00060037001e4fe800fc
:100e04001e4290009e42780084cf5200edff3900cc
:100e140014c0b300044078000080fa00000006000b
:020000040000fa
:100e2400440800000c000000020000000000000064
:100e34000000000000000000000000005008000056
:100e4400060000000000000000080000440000004c
:100e5400020000000000000000000000000000008c
:100e6400000000000000000000000000000000007e
:100e7400000000000000000000000000000000006e
:100e8400000000000000000000000000000000005e
:100e9400000000000000000000000000000000004e
:100ea400000000000000000000000000000000003e
:100eb40056080000040000000000000000000000cc
:020000040000fa
:100ec4000400fa00000f780011079800a6fe07003e
:080ed400a8fe0700feff370035
:020000040000fa
:0200000401f009
:04000000f17f00008c
:020000040000fa
:0200000401f009
:04000400ff7f00007a
:020000040000fa
:0200000401f009
:04001400ffff0000ea
:00000001FF
